:020000040800F2
:1000000038050020010100082D040008250400081F
:100010002904000849010008F10900080000000057
:100020000000000000000000000000005F06000863
:100030000D03000800000000A1040008710700087B
:100040001B0100081B0100081B0100081B01000820
:100050001B0100081B0100081B0100081B01000810
:100060001B0100081B0100081B0100081B01000800
:100070001B0100081B0100081B0100081B010008F0
:100080001B0100081B0100081B0100081B010008E0
:100090001B0100081B0100081B0100081B010008D0
:1000A0001B0100081B0100081B0100081B010008C0
:1000B0001B010008D50700081B0100081B010008F0
:1000C0001B0100081B0100081B0100081B010008A0
:1000D0001B0100081B0100081B0100081B01000890
:1000E0001B0100081B0100081B010008DFF80CD0F1
:1000F00000F018F800480047A50A0008380500205D
:100100000648804706480047FEE7FEE7FEE7FEE7B1
:10011000FEE7FEE7FEE7FEE7FEE7FEE775070008FD
:10012000ED000008064C074D06E0E06840F00103D2
:1001300094E8070098471034AC42F6D3FFF7DAFF93
:10014000480F0008680F000800BFFEE700F080516C
:1001500011B10349086001E002494860704700009E
:10016000040402400000024021B1026842F0010292
:10017000026004E002684FF6FE731A4002607047A6
:1001800001684FF6FE72114001600021016041607C
:100190008160C1604B49884208D14A4908394968A1
:1001A00041F00F01474A083A51608AE0454914314D
:1001B000884208D143490839496841F0F001414A71
:1001C000083A51607DE03F492831884208D13D49D5
:1001D0000839496841F470613A4A083A516070E060
:1001E00038493C31884208D136490839496841F4D8
:1001F0007041344A083A516063E0324950318842D4
:1002000008D130490839496841F470212D4A083A2B
:10021000516056E02B496431884208D12949083998
:10022000496841F47001274A083A516049E025497C
:100230007831884208D123490839496841F0706112
:10024000204A083A51603CE01F49884206D1011F0C
:10025000096841F00F01021F116032E01A491431A0
:10026000884208D11849091F096841F0F001164A6F
:10027000121F116025E014492831884208D1124923
:10028000091F096841F470610F4A121F116018E0DC
:100290000D493C31884208D10B49091F096841F4D6
:1002A0007041094A121F11600BE007495031884222
:1002B00007D10549091F096841F47021024A121F3C
:1002C00011607047080002400804024010B5002287
:1002D000026847F6F0739A430C6A8B6823430C69F3
:1002E00023434C6923438C692343CC6923434C6AE1
:1002F00023438C6A23431A430260CB6843600B6834
:1003000083604B68C36010BD4160704770472DE942
:10031000F04102460025002600200023002400278B
:1003200091F803C00CF00F0591F803C00CF0100C0D
:10033000BCF1000F03D091F802C04CEA050591F81A
:1003400000C0BCF1000F31D0146800202BE04FF04A
:10035000010C0CFA00F3B1F800C00CEA03069E424F
:1003600020D183004FF00F0C0CFA03F7BC4305FAC1
:1003700003FC4CEA040491F803C0BCF1280F06D139
:100380004FF0010C0CFA00FCC2F814C00AE091F81E
:1003900003C0BCF1480F05D14FF0010C0CFA00FC72
:1003A000C2F810C0401C0828D1D31460B1F800C0B6
:1003B000BCF1FF0F34DD546800202EE000F1080C82
:1003C0004FF0010808FA0CF3B1F800C00CEA03067C
:1003D0009E4221D183004FF00F0C0CFA03F7BC436F
:1003E00005FA03FC4CEA040491F803C0BCF1280FA1
:1003F00005D100F1080C08FA0CF8C2F8148091F845
:1004000003C0BCF1480F07D100F1080C4FF0010800
:1004100008FA0CF8C2F81080401C0828CED35460AB
:10042000BDE8F08100BFFEE700BFFEE770470000B7
:1004300070B5002100230F22C47804B3154C246842
:1004400004F4E064C4F5E064210AC1F10403CA4085
:10045000447804FA03F184781440214309010E4CD6
:100460000678A155047804F01F050124AC400578F6
:100470006D11AD0005F1E025C5F8004109E00478F3
:1004800004F01F050124AC40044D0678761145F8B0
:10049000264070BD0CED00E000E400E080E100E0EB
:1004A0007047000029B1064A52690243044B5A6161
:1004B00004E0034A52698243014B5A6170470000CD
:1004C0000010024029B1064A12690243044B1A6126
:1004D00004E0034A12698243014B1A61704700002D
:1004E0000010024029B1064A92690243044B9A6106
:1004F00004E0034A92698243014B9A61704700000D
:100500000010024029B1064AD2680243044BDA6067
:1005100004E0034AD2688243014BDA60704700006E
:100520000010024030B500210022002400232D4D90
:100530006D6805F00C0121B1042905D0082923D1EB
:1005400005E0294D056022E0274D05601FE0254D9F
:100550006D6805F47012234D6D6805F48034022532
:1005600005EB92421CB9214D554305600BE01D4D32
:100570006D6805F400351DB11C4D5543056002E062
:10058000194D5543056002E0174D056000BF00BFDF
:10059000144D6D6805F0F0010909154D6B5C056897
:1005A000DD4045600F4D6D6805F4E061090A104DAE
:1005B0006B5C4568DD4085600A4D6D6805F46051EF
:1005C000C90A0B4D6B5C4568DD40C560054D6D6823
:1005D00005F44041890B074D6B5CC568B5FBF3F52D
:1005E000056130BD0010024000127A0000093D0094
:1005F000140000202400002021B1028842F04002B3
:10060000028004E002884FF6BF731A4002807047F0
:100610001AB183880B43838002E083888B438380F5
:10062000704710B50022028802F441520B884C88B2
:1006300023438C882343CC8823430C8923434C8950
:1006400023438C892343CC8923431A430280838B21
:100650004FF2FF74234083830B8A038210BD7047DF
:1006600010B500F001F810BD0CB50020019000900D
:100670003348006840F480303149086000BF30489A
:10068000006800F4003000900198401C0190009830
:1006900018B90198B0F5A06FF1D12948006800F4AD
:1006A000003010B10120009001E00020009000987F
:1006B000012843D12348006840F010002149086018
:1006C0000846006820F0030008600846006840F013
:1006D000020008601A4840681949486008464068A6
:1006E00048600846406840F48060486008464068BA
:1006F00020F47C1048600846406840F4A810486028
:100700000846006840F08070086000BF0C48006830
:1007100000F000700028F9D00948406820F003007C
:10072000074948600846406840F00200486000BF42
:100730000348406800F00C000828F9D10CBD000007
:100740000010024000200240042808D14FF0E021B0
:10075000096941F004014FF0E022116107E04FF018
:10076000E021096921F004014FF0E0221161704796
:100770007047000010B51348006840F001001149AF
:10078000086008464068104908400E49486008461D
:1007900000680E4908400B4908600846006820F4CC
:1007A000802008600846406820F4FE0048604FF44E
:1007B0001F008860FFF754FF4FF000600449086095
:1007C00010BD0000001002400000FFF8FFFFF6FE21
:1007D00008ED00E010B50121044800F00CF818B154
:1007E0000121024800F004F810BD000000040040A0
:1007F000CA430282704730B502460020002300241D
:10080000158A05EA0103958905EA010413B10CB1C3
:10081000012000E0002030BD21B1828942F4005265
:10082000828104E082894DF6FF731A40828170470D
:1008300010B504462048844209D101218803FFF7FE
:1008400061FE00214FF48040FFF75CFE32E01B4860
:10085000844209D101214804FFF734FE00214FF4FE
:100860000030FFF72FFE25E01548844209D1012111
:100870008804FFF727FE00214FF48020FFF722FEB7
:1008800018E01048844209D10121C804FFF71AFE7C
:1008900000214FF40020FFF715FE0BE00A488442C8
:1008A00008D101210805FFF70DFE00214FF480104B
:1008B000FFF708FE10BD0000003801400044004072
:1008C00000480040004C004000500040F0B5034696
:1008D000002400260025002040F66A17B94200D106
:1008E00000BF1846C1F3421401F01F06012707FAA2
:1008F00006F5012C01D10C3004E0022C01D110309E
:1009000000E014301AB107682F43076002E007685F
:10091000AF430760F0BD00002DE9F04786B0054603
:100920000E460024A24600BFA1460027B08900B1B0
:1009300000BF2F462C8A4CF6FF700440F088044319
:100940002C82AC894EF6F3100440B08831890843FC
:10095000718908430443AC81AC8A4FF6FF400440E0
:10096000B0890443AC8201A8FFF7DCFD1F48874231
:1009700002D1DDF810A001E0DDF80CA0A88900F498
:10098000004040B10AEBCA0000EB0A103168490090
:10099000B0FBF1F807E00AEBCA0000EB0A1031687F
:1009A0008900B0FBF1F86420B8FBF0F004012009E5
:1009B000642101FB1089A88900F4004040B1322075
:1009C00000EBC900B0FBF1F000F00700044308E0C1
:1009D000322000EB09106421B0FBF1F000F00F00B1
:1009E00004432C8106B0BDE8F087000000380140C8
:1009F00000BFFEE702E008C8121F08C1002AFAD1B2
:100A000070477047002001E001C1121F002AFBD18E
:100A10007047000010B56FF00400FFF795FE0A481C
:100A200000680A49B0FBF1F00949087008460078EF
:100A300000EB4001C1EBC0104FF6FF7101EAC000AE
:100A40000449088010BD00000000002000127A0058
:100A5000280000202A0000200146114A12884A433B
:100A60004FF0E0235A6100229A611A46126942F05F
:100A700001021A6100BF4FF0E022106900F001028C
:100A80001AB100F48032002AF5D04FF0E02212694A
:100A900022F001024FF0E0231A6100229A617047B0
:100AA0002A0000204FF4E13000F066F8FFF7B2FFB3
:100AB00000F0EAF85DE000221146FF2000F0CAF8DD
:100AC0000446322100F0CCF80022FF21104600F04D
:100AD000C1F80446322100F0C3F8FF220021084685
:100AE00000F0B8F80446322100F0BAF87F2211462F
:100AF000104600F0AFF80446322100F08FF90022D2
:100B000011467F2000F0A6F80446322100F086F955
:100B10007F220021084600F09DF80446322100F0B3
:100B20007DF9142000F022F9C82000F0A5F900207A
:100B30001049087018E00022FA21104600F08AF8E7
:100B400004460C4991F9001088B2214600F034F9AE
:100B500000F04EF94FF4FA70FFF77EFF0548007879
:100B6000401C40B203490870024890F900000B286D
:100B7000E1DBA0E72C00002010B586B0044601217F
:100B800044F20500FFF7AEFC2348FFF751FE4FF497
:100B90000070ADF8140003208DF8160018208DF8B1
:100BA000170005A91D48FFF7B2FB4FF48060ADF8B0
:100BB000140048208DF8170005A91848FFF7A7FB77
:100BC00001940020ADF80800ADF80A00ADF80C0063
:100BD000ADF810000C20ADF80E0001A90E48FFF78B
:100BE0009BFE25208DF8000002208DF801000020DA
:100BF0008DF8020001208DF803006846FFF718FC0D
:100C0000012240F225510448FFF760FE012102480D
:100C1000FFF702FE06B010BD003801400008014099
:100C200070B500240EE0002508E0E02004EB44014C
:100C3000074A02EBC1014855681CC5B2182DF4DB08
:100C4000601C84B20B2CEEDB00F0D2F870BD00000B
:100C5000300000200346080440EA03201043704798
:100C600070B505460E4600240AE02946204600F0ED
:100C7000A3F800F0BDF83046FFF7EEFE601C84B22A
:100C80000B2CF2DB70BD000000B591B001210420F7
:100C9000FFF728FC01210803FFF724FC0121084687
:100CA000FFF700FC8020ADF8400018208DF84300CD
:100CB00003208DF8420010A92848FFF728FB4FF4C5
:100CC0004040ADF82C004FF48270ADF82E000020AB
:100CD000ADF83000ADF832000120ADF8340040022C
:100CE000ADF836001020ADF838000020ADF83A001D
:100CF0000720ADF83C000BA91948FFF792FC012131
:100D00001748FFF779FC012202211548FFF780FC04
:100D10001448FFF735FA12480C3000901248019041
:100D2000102002904FF484700390002004908020E3
:100D3000059000200690079008904FF4805009908D
:100D400000200A9069460748FFF7C0FAFFF768FFDE
:100D50006420FFF781FE11B000BD000000080140D3
:100D60000030014030000240300000202DE9F04109
:100D7000064600251BE0002410E020020B2190FB1A
:100D8000F1F0284400F0FF08404600F0ABF80746B9
:100D90003946204600F010F8601C84B20B2CECDBC6
:100DA00000F026F83046FFF757FE681C85B2B5F50F
:100DB000A06FE0DBBDE8F08130B502460B2A13DA04
:100DC00000200FE001FA00F303F400030BB1F82355
:100DD00000E0E02302EB4204044D05EBC40423547D
:100DE000431CD8B21828EDDB30BD000030000020D5
:100DF00010B500210848FFF7B7F94FF40070FFF76E
:100E0000A5F94FF484710448FFF77EFA01210248E6
:100E1000FFF7AAF910BD0000300002402DE9F041B3
:100E200006460F464FF0000821E000241BE0002595
:100E300006E0291988B23146FFF7BEFFE81C85B2EB
:100E40000B2DF6DBFFF7D4FF3846FFF705FE002534
:100E500006E0291988B20021FFF7AEFFE81C85B231
:100E60000B2DF6DB641C032CE1DB08F10108B8F163
:100E70000A0FDADBBDE8F0812DE9F04707460026CE
:100E80002CE0002427E0002512E0A819FF2190FBA8
:100E9000F1F201FB120000F0FF09484600F022F8D1
:100EA0008046291988B24146FFF786FFE81C85B2C3
:100EB0000B2DEADBFFF79CFF3846FFF7CDFD002541
:100EC00006E0291988B20021FFF776FFE81C85B2F9
:100ED0000B2DF6DB641C032CD5DB761CFF2ED0DD3E
:100EE000BDE8F08710B50446C4F1FF04552C0BDAB9
:100EF00004EB4401CAB204EB4401C1F1FF01C8B2E2
:100F00000021FFF7A7FE10BDAA2C0EDAA4F15500B0
:100F1000C4B204EB4400C0F1FF00C2B204EB4400D1
:100F2000C1B20020FFF796FEEDE7A4F1AA00C4B21B
:100F300004EB4402C2F1FF02D1B204EB4402D0B28E
:100F40000022FFF787FEDEE7680F000800000020A0
:100F500030000000F4090008980F0008300000205D
:100F600008050000040A0008007E56030000000087
:100F70000000000001020304060708090000000049
:100F8000010203040102030406070809020406081B
:080F9000000000000000000059
:04000005080000ED02
:00000001FF
